{
  "contractName": "ADOMedianizer",
  "abi": [
    {
      "inputs": [],
      "payable": false,
      "stateMutability": "nonpayable",
      "type": "constructor"
    },
    {
      "constant": true,
      "inputs": [
        {
          "internalType": "uint256",
          "name": "",
          "type": "uint256"
        }
      ],
      "name": "oracles",
      "outputs": [
        {
          "internalType": "address",
          "name": "",
          "type": "address"
        }
      ],
      "payable": false,
      "stateMutability": "view",
      "type": "function"
    },
    {
      "constant": true,
      "inputs": [],
      "name": "owner",
      "outputs": [
        {
          "internalType": "address",
          "name": "",
          "type": "address"
        }
      ],
      "payable": false,
      "stateMutability": "view",
      "type": "function"
    },
    {
      "constant": false,
      "inputs": [
        {
          "internalType": "address",
          "name": "_newOwner",
          "type": "address"
        }
      ],
      "name": "changeOwner",
      "outputs": [],
      "payable": false,
      "stateMutability": "nonpayable",
      "type": "function"
    },
    {
      "constant": true,
      "inputs": [
        {
          "internalType": "bytes32",
          "name": "_id",
          "type": "bytes32"
        }
      ],
      "name": "valueFor",
      "outputs": [
        {
          "internalType": "int256",
          "name": "",
          "type": "int256"
        },
        {
          "internalType": "uint256",
          "name": "",
          "type": "uint256"
        },
        {
          "internalType": "uint256",
          "name": "",
          "type": "uint256"
        }
      ],
      "payable": false,
      "stateMutability": "view",
      "type": "function"
    },
    {
      "constant": false,
      "inputs": [
        {
          "internalType": "address",
          "name": "_oracle",
          "type": "address"
        }
      ],
      "name": "addOracle",
      "outputs": [],
      "payable": false,
      "stateMutability": "nonpayable",
      "type": "function"
    },
    {
      "constant": false,
      "inputs": [
        {
          "internalType": "address",
          "name": "_oracle",
          "type": "address"
        }
      ],
      "name": "removeOracle",
      "outputs": [],
      "payable": false,
      "stateMutability": "nonpayable",
      "type": "function"
    }
  ],
  "bytecode": "0x608060405234801561001057600080fd5b50336000806101000a81548173ffffffffffffffffffffffffffffffffffffffff021916908373ffffffffffffffffffffffffffffffffffffffff1602179055506001600090806001815401808255809150509060018203906000526020600020016000909192909190916101000a81548173ffffffffffffffffffffffffffffffffffffffff021916908373ffffffffffffffffffffffffffffffffffffffff16021790555050610890806100c76000396000f3fe608060405234801561001057600080fd5b50600436106100625760003560e01c80635b69a7d8146100675780638da5cb5b146100d5578063a6f9dae11461011f578063df5dd1a514610163578063f78eea83146101a7578063fdc85fc4146101f7575b600080fd5b6100936004803603602081101561007d57600080fd5b810190808035906020019092919050505061023b565b604051808273ffffffffffffffffffffffffffffffffffffffff1673ffffffffffffffffffffffffffffffffffffffff16815260200191505060405180910390f35b6100dd610277565b604051808273ffffffffffffffffffffffffffffffffffffffff1673ffffffffffffffffffffffffffffffffffffffff16815260200191505060405180910390f35b6101616004803603602081101561013557600080fd5b81019080803573ffffffffffffffffffffffffffffffffffffffff16906020019092919050505061029c565b005b6101a56004803603602081101561017957600080fd5b81019080803573ffffffffffffffffffffffffffffffffffffffff169060200190929190505050610335565b005b6101d3600480360360208110156101bd57600080fd5b810190808035906020019092919050505061043d565b60405180848152602001838152602001828152602001935050505060405180910390f35b6102396004803603602081101561020d57600080fd5b81019080803573ffffffffffffffffffffffffffffffffffffffff16906020019092919050505061059e565b005b6001818154811061024857fe5b906000526020600020016000915054906101000a900473ffffffffffffffffffffffffffffffffffffffff1681565b6000809054906101000a900473ffffffffffffffffffffffffffffffffffffffff1681565b6000809054906101000a900473ffffffffffffffffffffffffffffffffffffffff1673ffffffffffffffffffffffffffffffffffffffff163373ffffffffffffffffffffffffffffffffffffffff16141561033257806000806101000a81548173ffffffffffffffffffffffffffffffffffffffff021916908373ffffffffffffffffffffffffffffffffffffffff1602179055505b50565b6000809054906101000a900473ffffffffffffffffffffffffffffffffffffffff1673ffffffffffffffffffffffffffffffffffffffff163373ffffffffffffffffffffffffffffffffffffffff16141561043a57600180549050600260008373ffffffffffffffffffffffffffffffffffffffff1673ffffffffffffffffffffffffffffffffffffffff1681526020019081526020016000208190555060018190806001815401808255809150509060018203906000526020600020016000909192909190916101000a81548173ffffffffffffffffffffffffffffffffffffffff021916908373ffffffffffffffffffffffffffffffffffffffff160217905550505b50565b600080600060606000806000806000905060008090505b60018054905081101561057c576001818154811061046e57fe5b9060005260206000200160009054906101000a900473ffffffffffffffffffffffffffffffffffffffff1673ffffffffffffffffffffffffffffffffffffffff1663f78eea838b6040518263ffffffff1660e01b81526004018082815260200191505060606040518083038186803b1580156104e957600080fd5b505afa1580156104fd573d6000803e3d6000fd5b505050506040513d606081101561051357600080fd5b8101908080519060200190929190805190602001909291908051906020019092919050505080955081965082975050505060c883141561056f578486838151811061055a57fe5b60200260200101818152505081806001019250505b8080600101915050610454565b506105868561073d565b4260c880905097509750975050505050509193909250565b6000809054906101000a900473ffffffffffffffffffffffffffffffffffffffff1673ffffffffffffffffffffffffffffffffffffffff163373ffffffffffffffffffffffffffffffffffffffff16141561073a576000600260008373ffffffffffffffffffffffffffffffffffffffff1673ffffffffffffffffffffffffffffffffffffffff16815260200190815260200160002054905060018054905081146106dd5760006001808080549050038154811061065857fe5b9060005260206000200160009054906101000a900473ffffffffffffffffffffffffffffffffffffffff169050806001838154811061069357fe5b9060005260206000200160006101000a81548173ffffffffffffffffffffffffffffffffffffffff021916908373ffffffffffffffffffffffffffffffffffffffff160217905550505b60018054809190600190036106f2919061080a565b506000600260008473ffffffffffffffffffffffffffffffffffffffff1673ffffffffffffffffffffffffffffffffffffffff16815260200190815260200160002081905550505b50565b600080600190505b825181101561080457600083828151811061075c57fe5b6020026020010151905060008290505b600081118015610791575084600182038151811061078657fe5b602002602001015182125b156107d3578460018203815181106107a557fe5b60200260200101518582815181106107b957fe5b60200260200101818152505080806001900391505061076c565b828110156107f557818582815181106107e857fe5b6020026020010181815250505b50508080600101915050610745565b50919050565b815481835581811115610831578183600052602060002091820191016108309190610836565b5b505050565b61085891905b8082111561085457600081600090555060010161083c565b5090565b9056fea265627a7a72315820c7feaa5ddb6fb9a8b918c3a833ad9f83079e310e8782b18a0aa7abc10598266464736f6c63430005100032",
  "source": "pragma solidity >=0.5.0 <0.7.0;\r\nimport \"./EIP2362Interface.sol\";\r\nimport \"./SafeMath.sol\";\r\n\r\ncontract ADOMedianizer is EIP2362Interface{\r\n\r\n  address public owner;\r\n  address[] public oracles;\r\n  mapping(address => uint) index;\r\n\r\n\r\n  constructor() public {\r\n    owner = msg.sender;\r\n    oracles.push(address(0));\r\n  }\r\n\r\n  modifier restricted() {\r\n    if (msg.sender == owner) _;\r\n  }\r\n\r\n  function changeOwner(address _newOwner) restricted() public{\r\n    owner = _newOwner;\r\n  }\r\n\r\n  //This is the exposed EIP function that loops through the oracle addresses and medianizes the values\r\n  function valueFor(bytes32 _id) external view returns(int,uint,uint){\r\n    int[] memory values;\r\n    int _val;\r\n    uint _time;\r\n    uint _status;\r\n    uint len = 0;\r\n    for(uint i = 0; i< oracles.length;i++){\r\n      (_val,_time,_status) = EIP2362Interface(oracles[i]).valueFor(_id);\r\n      if(_status == 200){\r\n        values[len] = _val;\r\n        len++;\r\n      }\r\n    }\r\n    return (median(values),now,200);\r\n  } \r\n\r\n  function addOracle(address _oracle) restricted() external{\r\n    index[_oracle] = oracles.length;\r\n    oracles.push(_oracle);\r\n  }\r\n\r\n  function removeOracle(address _oracle) restricted() external{\r\n    uint _index = index[_oracle];\r\n    if(_index != oracles.length){\r\n      address last = oracles[oracles.length - 1];\r\n      oracles[_index] = last;\r\n    }\r\n    oracles.length--;\r\n    index[_oracle] = 0;\r\n  }\r\n\r\n  function median(int256[] memory a) internal view returns(int){\r\n        uint256 i;\r\n        for (i = 1; i < a.length; i++) {\r\n            int256 temp = a[i];\r\n            uint256 j = i;\r\n            while (j > 0 && temp < a[j - 1]) {\r\n                a[j] = a[j - 1];\r\n                j--;\r\n            }\r\n            if (j < i) {\r\n                a[j]= temp;\r\n            }\r\n        }\r\n  }\r\n\r\n}\r\n",
  "sourcePath": "C:\\company\\code\\ADOMedianizer\\contracts\\ADOMedianizer.sol",
  "compiler": {
    "name": "solc",
    "version": "0.5.16+commit.9c3226ce.Emscripten.clang"
  },
  "schemaVersion": "3.0.23",
  "updatedAt": "2020-04-09T18:31:27.936Z",
  "devdoc": {
    "methods": {}
  },
  "userdoc": {
    "methods": {}
  }
}