{
  "contractName": "ADOMedianizer",
  "abi": [
    {
      "constant": true,
      "inputs": [
        {
          "name": "",
          "type": "address"
        }
      ],
      "name": "oraclesIndex",
      "outputs": [
        {
          "name": "",
          "type": "uint256"
        }
      ],
      "payable": false,
      "stateMutability": "view",
      "type": "function"
    },
    {
      "constant": true,
      "inputs": [
        {
          "name": "",
          "type": "uint256"
        }
      ],
      "name": "oracles",
      "outputs": [
        {
          "name": "",
          "type": "address"
        }
      ],
      "payable": false,
      "stateMutability": "view",
      "type": "function"
    },
    {
      "constant": true,
      "inputs": [],
      "name": "owner",
      "outputs": [
        {
          "name": "",
          "type": "address"
        }
      ],
      "payable": false,
      "stateMutability": "view",
      "type": "function"
    },
    {
      "inputs": [],
      "payable": false,
      "stateMutability": "nonpayable",
      "type": "constructor"
    },
    {
      "constant": false,
      "inputs": [
        {
          "name": "_newOwner",
          "type": "address"
        }
      ],
      "name": "changeOwner",
      "outputs": [],
      "payable": false,
      "stateMutability": "nonpayable",
      "type": "function"
    },
    {
      "constant": true,
      "inputs": [
        {
          "name": "_id",
          "type": "bytes32"
        }
      ],
      "name": "valueFor",
      "outputs": [
        {
          "name": "",
          "type": "int256"
        },
        {
          "name": "",
          "type": "uint256"
        },
        {
          "name": "",
          "type": "uint256"
        }
      ],
      "payable": false,
      "stateMutability": "view",
      "type": "function"
    },
    {
      "constant": false,
      "inputs": [
        {
          "name": "_oracle",
          "type": "address"
        }
      ],
      "name": "addOracle",
      "outputs": [],
      "payable": false,
      "stateMutability": "nonpayable",
      "type": "function"
    },
    {
      "constant": false,
      "inputs": [
        {
          "name": "_oracle",
          "type": "address"
        }
      ],
      "name": "removeOracle",
      "outputs": [],
      "payable": false,
      "stateMutability": "nonpayable",
      "type": "function"
    }
  ],
  "bytecode": "0x608060405234801561001057600080fd5b50336000806101000a81548173ffffffffffffffffffffffffffffffffffffffff021916908373ffffffffffffffffffffffffffffffffffffffff1602179055506001600090806001815401808255809150509060018203906000526020600020016000909192909190916101000a81548173ffffffffffffffffffffffffffffffffffffffff021916908373ffffffffffffffffffffffffffffffffffffffff1602179055505061099a806100c76000396000f3fe608060405234801561001057600080fd5b506004361061007d5760003560e01c8063a6f9dae11161005b578063a6f9dae114610192578063df5dd1a5146101d6578063f78eea831461021a578063fdc85fc41461026a5761007d565b806303d14012146100825780635b69a7d8146100da5780638da5cb5b14610148575b600080fd5b6100c46004803603602081101561009857600080fd5b81019080803573ffffffffffffffffffffffffffffffffffffffff1690602001909291905050506102ae565b6040518082815260200191505060405180910390f35b610106600480360360208110156100f057600080fd5b81019080803590602001909291905050506102c6565b604051808273ffffffffffffffffffffffffffffffffffffffff1673ffffffffffffffffffffffffffffffffffffffff16815260200191505060405180910390f35b610150610302565b604051808273ffffffffffffffffffffffffffffffffffffffff1673ffffffffffffffffffffffffffffffffffffffff16815260200191505060405180910390f35b6101d4600480360360208110156101a857600080fd5b81019080803573ffffffffffffffffffffffffffffffffffffffff169060200190929190505050610327565b005b610218600480360360208110156101ec57600080fd5b81019080803573ffffffffffffffffffffffffffffffffffffffff1690602001909291905050506103c0565b005b6102466004803603602081101561023057600080fd5b81019080803590602001909291905050506104c8565b60405180848152602001838152602001828152602001935050505060405180910390f35b6102ac6004803603602081101561028057600080fd5b81019080803573ffffffffffffffffffffffffffffffffffffffff1690602001909291905050506106af565b005b60026020528060005260406000206000915090505481565b600181815481106102d357fe5b906000526020600020016000915054906101000a900473ffffffffffffffffffffffffffffffffffffffff1681565b6000809054906101000a900473ffffffffffffffffffffffffffffffffffffffff1681565b6000809054906101000a900473ffffffffffffffffffffffffffffffffffffffff1673ffffffffffffffffffffffffffffffffffffffff163373ffffffffffffffffffffffffffffffffffffffff1614156103bd57806000806101000a81548173ffffffffffffffffffffffffffffffffffffffff021916908373ffffffffffffffffffffffffffffffffffffffff1602179055505b50565b6000809054906101000a900473ffffffffffffffffffffffffffffffffffffffff1673ffffffffffffffffffffffffffffffffffffffff163373ffffffffffffffffffffffffffffffffffffffff1614156104c557600180549050600260008373ffffffffffffffffffffffffffffffffffffffff1673ffffffffffffffffffffffffffffffffffffffff1681526020019081526020016000208190555060018190806001815401808255809150509060018203906000526020600020016000909192909190916101000a81548173ffffffffffffffffffffffffffffffffffffffff021916908373ffffffffffffffffffffffffffffffffffffffff160217905550505b50565b6000806000600180600180549050031161054a576040517f08c379a000000000000000000000000000000000000000000000000000000000815260040180806020018281038252601f8152602001807f4e6f2076616c75657320617661696c61626c6520666f7220746869732049640081525060200191505060405180910390fd5b6060600080600080600090506000600180805490500390506000600190505b8181101561068c576001818154811061057e57fe5b9060005260206000200160009054906101000a900473ffffffffffffffffffffffffffffffffffffffff1673ffffffffffffffffffffffffffffffffffffffff1663f78eea838c6040518263ffffffff1660e01b81526004018082815260200191505060606040518083038186803b1580156105f957600080fd5b505afa15801561060d573d6000803e3d6000fd5b505050506040513d606081101561062357600080fd5b8101908080519060200190929190805190602001909291908051906020019092919050505080965081975082985050505060c884141561067f578587848151811061066a57fe5b60200260200101818152505082806001019350505b8080600101915050610569565b506106968661087a565b4260c88090509850985098505050505050509193909250565b6000809054906101000a900473ffffffffffffffffffffffffffffffffffffffff1673ffffffffffffffffffffffffffffffffffffffff163373ffffffffffffffffffffffffffffffffffffffff161415610877576000600260008373ffffffffffffffffffffffffffffffffffffffff1673ffffffffffffffffffffffffffffffffffffffff168152602001908152602001600020549050600180805490500381146107f05760006001808080549050038154811061076b57fe5b9060005260206000200160009054906101000a900473ffffffffffffffffffffffffffffffffffffffff16905080600183815481106107a657fe5b9060005260206000200160006101000a81548173ffffffffffffffffffffffffffffffffffffffff021916908373ffffffffffffffffffffffffffffffffffffffff160217905550505b60018054806107fb57fe5b6001900381819060005260206000200160006101000a81549073ffffffffffffffffffffffffffffffffffffffff021916905590556000600260008473ffffffffffffffffffffffffffffffffffffffff1673ffffffffffffffffffffffffffffffffffffffff16815260200190815260200160002081905550505b50565b600080600190505b825181101561094157600083828151811061089957fe5b6020026020010151905060008290505b6000811180156108ce57508460018203815181106108c357fe5b602002602001015182125b15610910578460018203815181106108e257fe5b60200260200101518582815181106108f657fe5b6020026020010181815250508080600190039150506108a9565b82811015610932578185828151811061092557fe5b6020026020010181815250505b50508080600101915050610882565b6000600284518161094e57fe5b04905083818151811061095d57fe5b60200260200101519250505091905056fea165627a7a72305820d4e6e1c5c78f77cda2c6ab60747a39aa09a1349c90d829042b2329088fad37e20029",
  "source": "pragma solidity ^0.5.0;\r\n\r\nimport \"./EIP2362Interface.sol\";\r\nimport \"./SafeMath.sol\";\r\n\r\ncontract ADOMedianizer is EIP2362Interface{\r\n    /*Variables*/ \r\n    address public owner;\r\n    address[] public oracles;\r\n    mapping(address => uint) public oraclesIndex;\r\n\r\n  \r\n    constructor() public {\r\n        owner = msg.sender;\r\n        oracles.push(address(0));\r\n    }\r\n\r\n\r\n    modifier restricted() {\r\n        if (msg.sender == owner) _;\r\n    }\r\n\r\n    /*Functions*/\r\n    /**\r\n    * @dev allows owner to transfer ownership\r\n    * @param _newOwner is the address ownership is being transferred to\r\n    */\r\n    function changeOwner(address _newOwner) restricted() external{\r\n        owner = _newOwner;\r\n    }\r\n\r\n    /**\r\n    * @dev This function loops through the oracle addresses and medianizes the values\r\n    * @param _id the standarized ADO data type/value pair id\r\n    * @return median, timestamp and status\r\n    */\r\n    function valueFor(bytes32 _id) external view returns(int,uint,uint){\r\n        //make sure the array is not empty\r\n        //should there be a minimum values avaialbe?--this basically makes i\r\n        // a requirement to include at leas x amount of oracles, in this example: 3 \r\n        require(oracles.length-1 > 1, \"No values available for this Id\");\r\n        int[] memory values;\r\n        int val;\r\n        uint time;\r\n        uint status;\r\n        uint len = 0; \r\n        uint num = oracles.length-1;\r\n        for(uint i = 1; i<num ;i++){\r\n           (val,time,status) = EIP2362Interface(oracles[i]).valueFor(_id);\r\n              if(status == 200){\r\n                  values[len] = val;\r\n                  len++;\r\n              }\r\n        }\r\n        return (median(values),now,200);\r\n  } \r\n\r\n    /**\r\n    * @dev Allows owner to add an oracle provider\r\n    * @param _oracle is the oracle address for the oracle being added\r\n    */\r\n    function addOracle(address _oracle) restricted() external{\r\n        oraclesIndex[_oracle] = oracles.length;\r\n        oracles.push(_oracle);\r\n    }\r\n\r\n\r\n    /**\r\n    * @dev Allows the owner to remove an oracle provider\r\n    * @param _oracle is the oracle address for the oracle being excluded\r\n    */\r\n    function removeOracle(address _oracle) restricted() external{\r\n        uint index = oraclesIndex[_oracle];\r\n        // just add the -1???--Issue 11\r\n        if(index != oracles.length-1){\r\n            address last = oracles[oracles.length - 1];\r\n            oracles[index] = last;\r\n        }\r\n        //oracles.length--;\r\n        oracles.pop();\r\n        oraclesIndex[_oracle] = 0;\r\n    }\r\n\r\n\r\n    /**\r\n    * @dev Internal function that sorts values submitted by oracles and returns the median\r\n    * @param a is the array containing the values submitted for the Id by all the oracles\r\n    * @return median value\r\n    */\r\n    function median(int256[] memory a) internal pure returns(int){\r\n        uint256 i;\r\n        for (i = 1; i < a.length; i++) {\r\n            int256 temp = a[i];\r\n            uint256 j = i;\r\n            while (j > 0 && temp < a[j - 1]) {\r\n                a[j] = a[j - 1];\r\n                j--;\r\n            }\r\n            if (j < i) {\r\n                a[j]= temp;\r\n            }\r\n        }\r\n        uint256 m = a.length/2;\r\n        return(a[m]);\r\n    }\r\n\r\n}\r\n",
  "sourcePath": "C:/users/lloya/documents/dda/1tellor/tellor/projects/adomedianizer/contracts/ADOMedianizer.sol",
  "compiler": {
    "name": "solc",
    "version": "0.5.8+commit.23d335f2.Emscripten.clang"
  },
  "schemaVersion": "3.0.11",
  "updatedAt": "2020-04-10T19:34:42.386Z",
  "devdoc": {
    "methods": {
      "addOracle(address)": {
        "details": "Allows owner to add an oracle provider\r",
        "params": {
          "_oracle": "is the oracle address for the oracle being added\r"
        }
      },
      "changeOwner(address)": {
        "details": "allows owner to transfer ownership\r",
        "params": {
          "_newOwner": "is the address ownership is being transferred to\r"
        }
      },
      "removeOracle(address)": {
        "details": "Allows the owner to remove an oracle provider\r",
        "params": {
          "_oracle": "is the oracle address for the oracle being excluded\r"
        }
      },
      "valueFor(bytes32)": {
        "details": "This function loops through the oracle addresses and medianizes the values\r",
        "params": {
          "_id": "the standarized ADO data type/value pair id\r"
        },
        "return": "median, timestamp and status\r"
      }
    }
  },
  "userdoc": {
    "methods": {}
  }
}