{
  "contractName": "sampleOracle",
  "abi": [
    {
      "constant": false,
      "inputs": [
        {
          "name": "_id",
          "type": "bytes32"
        },
        {
          "name": "_value",
          "type": "int256"
        }
      ],
      "name": "setValue",
      "outputs": [],
      "payable": false,
      "stateMutability": "nonpayable",
      "type": "function"
    },
    {
      "constant": true,
      "inputs": [
        {
          "name": "_id",
          "type": "bytes32"
        }
      ],
      "name": "valueFor",
      "outputs": [
        {
          "name": "_value",
          "type": "int256"
        },
        {
          "name": "_timestamp",
          "type": "uint256"
        },
        {
          "name": "_status",
          "type": "uint256"
        }
      ],
      "payable": false,
      "stateMutability": "view",
      "type": "function"
    }
  ],
  "bytecode": "0x608060405234801561001057600080fd5b506101fb806100206000396000f3fe608060405234801561001057600080fd5b50600436106100365760003560e01c8063776d01a51461003b578063f78eea8314610073575b600080fd5b6100716004803603604081101561005157600080fd5b8101908080359060200190929190803590602001909291905050506100c3565b005b61009f6004803603602081101561008957600080fd5b810190808035906020019092919050505061012c565b60405180848152602001838152602001828152602001935050505060405180910390f35b80600080848152602001908152602001600020600042815260200190815260200160002081905550600160008381526020019081526020016000204290806001815401808255809150509060018203906000526020600020016000909192909190915055505050565b600080600060016000858152602001908152602001600020600180600087815260200190815260200160002080549050038154811061016757fe5b9060005260206000200154915060008211156101b2576000808581526020019081526020016000206000838152602001908152602001600020548260c88090509250925092506101c8565b6000806101948292508191508090509250925092505b919390925056fea165627a7a723058204f1ee5a2e3c152dd786475ac40735042aa4931a823b5bb1bcf80e24aea8de90a0029",
  "source": "pragma solidity ^0.5.0;\r\nimport \"../EIP2362Interface.sol\";\r\n\r\n/**\r\n* @title sampleOracle\r\n* \r\n*/\r\n\r\ncontract sampleOracle is EIP2362Interface{\r\n    /*Variables*/\r\n    mapping(bytes32=>mapping(uint=>int256)) valuesByID;\r\n    mapping (bytes32 => uint[]) timestampsByID;\r\n  \r\n    /**\r\n    * @dev Allows oracle provider to push the vlue for the corresponding _id\r\n    * @param _id is the standarized ADO data type/value pair Id\r\n    * @param _value is the value \r\n    */\r\n    function setValue(bytes32 _id, int256 _value) external{\r\n      \tvaluesByID[_id][now] = _value;\r\n      \ttimestampsByID[_id].push(now);\r\n    }\r\n\r\n    /**\r\n    * @dev Allows the ADOMedianizer to retreive the value, timestamp, and status for the specifed Id\r\n    * @param _id is the standarized ADO data type/value pair id\r\n    * @return _value the value corresponding to the id\r\n    * @return _timestamp is the unix timestamp\r\n    * @return _status is the standarized data status\r\n    */\r\n    function valueFor(bytes32 _id) external view returns(int _value,uint _timestamp,uint _status){\r\n        _timestamp = timestampsByID[_id][timestampsByID[_id].length - 1];\r\n        if(_timestamp > 0){\r\n           \treturn(valuesByID[_id][_timestamp],_timestamp,200);\r\n\t      }\r\n\t      else return(0,0,404);\r\n    } \r\n}\r\n",
  "sourcePath": "C:/users/lloya/documents/dda/1tellor/tellor/projects/adomedianizer/contracts/testContracts/sampleOracle.sol",
  "compiler": {
    "name": "solc",
    "version": "0.5.8+commit.23d335f2.Emscripten.clang"
  },
  "schemaVersion": "3.0.11",
  "updatedAt": "2020-04-10T19:34:42.403Z",
  "devdoc": {
    "methods": {
      "setValue(bytes32,int256)": {
        "details": "Allows oracle provider to push the vlue for the corresponding _id\r",
        "params": {
          "_id": "is the standarized ADO data type/value pair Id\r",
          "_value": "is the value \r"
        }
      },
      "valueFor(bytes32)": {
        "details": "Allows the ADOMedianizer to retreive the value, timestamp, and status for the specifed Id\r",
        "params": {
          "_id": "is the standarized ADO data type/value pair id\r"
        },
        "return": "_value the value corresponding to the id\r_timestamp is the unix timestamp\r_status is the standarized data status\r"
      }
    },
    "title": "sampleOracle\r \r"
  },
  "userdoc": {
    "methods": {}
  }
}