{
  "contractName": "sampleOracle",
  "abi": [
    {
      "constant": false,
      "inputs": [
        {
          "internalType": "bytes32",
          "name": "_id",
          "type": "bytes32"
        },
        {
          "internalType": "int256",
          "name": "_value",
          "type": "int256"
        }
      ],
      "name": "setValue",
      "outputs": [],
      "payable": false,
      "stateMutability": "nonpayable",
      "type": "function"
    },
    {
      "constant": true,
      "inputs": [
        {
          "internalType": "bytes32",
          "name": "_id",
          "type": "bytes32"
        }
      ],
      "name": "valueFor",
      "outputs": [
        {
          "internalType": "int256",
          "name": "_value",
          "type": "int256"
        },
        {
          "internalType": "uint256",
          "name": "_timestamp",
          "type": "uint256"
        },
        {
          "internalType": "uint256",
          "name": "_status",
          "type": "uint256"
        }
      ],
      "payable": false,
      "stateMutability": "view",
      "type": "function"
    }
  ],
  "bytecode": "0x608060405234801561001057600080fd5b50610204806100206000396000f3fe608060405234801561001057600080fd5b50600436106100365760003560e01c8063776d01a51461003b578063f78eea8314610073575b600080fd5b6100716004803603604081101561005157600080fd5b8101908080359060200190929190803590602001909291905050506100c3565b005b61009f6004803603602081101561008957600080fd5b810190808035906020019092919050505061012c565b60405180848152602001838152602001828152602001935050505060405180910390f35b80600080848152602001908152602001600020600042815260200190815260200160002081905550600160008381526020019081526020016000204290806001815401808255809150509060018203906000526020600020016000909192909190915055505050565b600080600060016000858152602001908152602001600020600180600087815260200190815260200160002080549050038154811061016757fe5b9060005260206000200154915060008211156101b2576000808581526020019081526020016000206000838152602001908152602001600020548260c88090509250925092506101c8565b6000806101948292508191508090509250925092505b919390925056fea265627a7a723158209b94fe1a00441917647007f68d16a8debb94ae9239e5ca636c71997ebee2cf1164736f6c63430005100032",
  "source": "pragma solidity >=0.5.0 <0.7.0;\r\nimport \"../EIP2362Interface.sol\";\r\n\r\ncontract sampleOracle is EIP2362Interface{\r\n  mapping(bytes32=>mapping(uint=>int256)) valuesByID;\r\n  mapping (bytes32 => uint[]) timestampsByID;\r\n  \r\n\r\n  function setValue(bytes32 _id, int256 _value) external{\r\n  \tvaluesByID[_id][now] = _value;\r\n  \ttimestampsByID[_id].push(now);\r\n  }\r\n\r\n\r\n\r\n  //This is the exposed EIP function that loops through the oracle addresses and medianizes the values\r\n  function valueFor(bytes32 _id) external view returns(int _value,uint _timestamp,uint _status){\r\n    _timestamp = timestampsByID[_id][timestampsByID[_id].length - 1];\r\n    if(_timestamp > 0){\r\n    \treturn(valuesByID[_id][_timestamp],_timestamp,200);\r\n\t}\r\n\telse return(0,0,404);\r\n  } \r\n}\r\n",
  "sourcePath": "C:\\company\\code\\ADOMedianizer\\contracts\\testContracts\\sampleOracle.sol",
  "compiler": {
    "name": "solc",
    "version": "0.5.16+commit.9c3226ce.Emscripten.clang"
  },
  "schemaVersion": "3.0.23",
  "updatedAt": "2020-04-09T18:31:27.944Z",
  "devdoc": {
    "methods": {}
  },
  "userdoc": {
    "methods": {}
  }
}